{
  "_format": "hh-sol-artifact-1",
  "contractName": "NftWarranty",
  "sourceName": "contracts/NftWarranty.sol",
  "abi": [
    {
      "inputs": [
        {
          "internalType": "string",
          "name": "name",
          "type": "string"
        },
        {
          "internalType": "string",
          "name": "symbol",
          "type": "string"
        }
      ],
      "stateMutability": "nonpayable",
      "type": "constructor"
    },
    {
      "anonymous": false,
      "inputs": [
        {
          "indexed": true,
          "internalType": "address",
          "name": "owner",
          "type": "address"
        },
        {
          "indexed": true,
          "internalType": "address",
          "name": "approved",
          "type": "address"
        },
        {
          "indexed": true,
          "internalType": "uint256",
          "name": "tokenId",
          "type": "uint256"
        }
      ],
      "name": "Approval",
      "type": "event"
    },
    {
      "anonymous": false,
      "inputs": [
        {
          "indexed": true,
          "internalType": "address",
          "name": "owner",
          "type": "address"
        },
        {
          "indexed": true,
          "internalType": "address",
          "name": "operator",
          "type": "address"
        },
        {
          "indexed": false,
          "internalType": "bool",
          "name": "approved",
          "type": "bool"
        }
      ],
      "name": "ApprovalForAll",
      "type": "event"
    },
    {
      "anonymous": false,
      "inputs": [
        {
          "indexed": true,
          "internalType": "address",
          "name": "previousOwner",
          "type": "address"
        },
        {
          "indexed": true,
          "internalType": "address",
          "name": "newOwner",
          "type": "address"
        }
      ],
      "name": "OwnershipTransferred",
      "type": "event"
    },
    {
      "anonymous": false,
      "inputs": [
        {
          "indexed": true,
          "internalType": "address",
          "name": "from",
          "type": "address"
        },
        {
          "indexed": true,
          "internalType": "address",
          "name": "to",
          "type": "address"
        },
        {
          "indexed": true,
          "internalType": "uint256",
          "name": "tokenId",
          "type": "uint256"
        }
      ],
      "name": "Transfer",
      "type": "event"
    },
    {
      "inputs": [
        {
          "internalType": "address",
          "name": "to",
          "type": "address"
        },
        {
          "internalType": "uint256",
          "name": "tokenId",
          "type": "uint256"
        }
      ],
      "name": "approve",
      "outputs": [],
      "stateMutability": "nonpayable",
      "type": "function"
    },
    {
      "inputs": [
        {
          "internalType": "address",
          "name": "owner",
          "type": "address"
        }
      ],
      "name": "balanceOf",
      "outputs": [
        {
          "internalType": "uint256",
          "name": "",
          "type": "uint256"
        }
      ],
      "stateMutability": "view",
      "type": "function"
    },
    {
      "inputs": [
        {
          "internalType": "uint256",
          "name": "tokenId",
          "type": "uint256"
        }
      ],
      "name": "getApproved",
      "outputs": [
        {
          "internalType": "address",
          "name": "",
          "type": "address"
        }
      ],
      "stateMutability": "view",
      "type": "function"
    },
    {
      "inputs": [],
      "name": "getUserNfts",
      "outputs": [
        {
          "internalType": "uint256[]",
          "name": "",
          "type": "uint256[]"
        }
      ],
      "stateMutability": "view",
      "type": "function"
    },
    {
      "inputs": [
        {
          "internalType": "address",
          "name": "owner",
          "type": "address"
        },
        {
          "internalType": "address",
          "name": "operator",
          "type": "address"
        }
      ],
      "name": "isApprovedForAll",
      "outputs": [
        {
          "internalType": "bool",
          "name": "",
          "type": "bool"
        }
      ],
      "stateMutability": "view",
      "type": "function"
    },
    {
      "inputs": [
        {
          "internalType": "string",
          "name": "_tokenURI",
          "type": "string"
        }
      ],
      "name": "mint",
      "outputs": [],
      "stateMutability": "nonpayable",
      "type": "function"
    },
    {
      "inputs": [],
      "name": "name",
      "outputs": [
        {
          "internalType": "string",
          "name": "",
          "type": "string"
        }
      ],
      "stateMutability": "view",
      "type": "function"
    },
    {
      "inputs": [],
      "name": "owner",
      "outputs": [
        {
          "internalType": "address",
          "name": "",
          "type": "address"
        }
      ],
      "stateMutability": "view",
      "type": "function"
    },
    {
      "inputs": [
        {
          "internalType": "uint256",
          "name": "tokenId",
          "type": "uint256"
        }
      ],
      "name": "ownerOf",
      "outputs": [
        {
          "internalType": "address",
          "name": "",
          "type": "address"
        }
      ],
      "stateMutability": "view",
      "type": "function"
    },
    {
      "inputs": [],
      "name": "renounceOwnership",
      "outputs": [],
      "stateMutability": "nonpayable",
      "type": "function"
    },
    {
      "inputs": [
        {
          "internalType": "address",
          "name": "from",
          "type": "address"
        },
        {
          "internalType": "address",
          "name": "to",
          "type": "address"
        },
        {
          "internalType": "uint256",
          "name": "tokenId",
          "type": "uint256"
        }
      ],
      "name": "safeTransferFrom",
      "outputs": [],
      "stateMutability": "nonpayable",
      "type": "function"
    },
    {
      "inputs": [
        {
          "internalType": "address",
          "name": "from",
          "type": "address"
        },
        {
          "internalType": "address",
          "name": "to",
          "type": "address"
        },
        {
          "internalType": "uint256",
          "name": "tokenId",
          "type": "uint256"
        },
        {
          "internalType": "bytes",
          "name": "data",
          "type": "bytes"
        }
      ],
      "name": "safeTransferFrom",
      "outputs": [],
      "stateMutability": "nonpayable",
      "type": "function"
    },
    {
      "inputs": [
        {
          "internalType": "address",
          "name": "operator",
          "type": "address"
        },
        {
          "internalType": "bool",
          "name": "approved",
          "type": "bool"
        }
      ],
      "name": "setApprovalForAll",
      "outputs": [],
      "stateMutability": "nonpayable",
      "type": "function"
    },
    {
      "inputs": [
        {
          "internalType": "bytes4",
          "name": "interfaceId",
          "type": "bytes4"
        }
      ],
      "name": "supportsInterface",
      "outputs": [
        {
          "internalType": "bool",
          "name": "",
          "type": "bool"
        }
      ],
      "stateMutability": "view",
      "type": "function"
    },
    {
      "inputs": [],
      "name": "symbol",
      "outputs": [
        {
          "internalType": "string",
          "name": "",
          "type": "string"
        }
      ],
      "stateMutability": "view",
      "type": "function"
    },
    {
      "inputs": [
        {
          "internalType": "uint256",
          "name": "_tokenId",
          "type": "uint256"
        }
      ],
      "name": "tokenURI",
      "outputs": [
        {
          "internalType": "string",
          "name": "",
          "type": "string"
        }
      ],
      "stateMutability": "view",
      "type": "function"
    },
    {
      "inputs": [
        {
          "internalType": "address",
          "name": "from",
          "type": "address"
        },
        {
          "internalType": "address",
          "name": "to",
          "type": "address"
        },
        {
          "internalType": "uint256",
          "name": "tokenId",
          "type": "uint256"
        }
      ],
      "name": "transferFrom",
      "outputs": [],
      "stateMutability": "nonpayable",
      "type": "function"
    },
    {
      "inputs": [
        {
          "internalType": "address",
          "name": "newOwner",
          "type": "address"
        }
      ],
      "name": "transferOwnership",
      "outputs": [],
      "stateMutability": "nonpayable",
      "type": "function"
    },
    {
      "inputs": [
        {
          "internalType": "address",
          "name": "",
          "type": "address"
        },
        {
          "internalType": "uint256",
          "name": "",
          "type": "uint256"
        }
      ],
      "name": "userNfts",
      "outputs": [
        {
          "internalType": "uint256",
          "name": "",
          "type": "uint256"
        }
      ],
      "stateMutability": "view",
      "type": "function"
    }
  ],
  "bytecode": "0x60806040523480156200001157600080fd5b506040516200339c3803806200339c8339818101604052810190620000379190620002e8565b818181600090816200004a9190620005b8565b5080600190816200005c9190620005b8565b5050506200007f620000736200008760201b60201c565b6200008f60201b60201c565b50506200069f565b600033905090565b6000600660009054906101000a900473ffffffffffffffffffffffffffffffffffffffff16905081600660006101000a81548173ffffffffffffffffffffffffffffffffffffffff021916908373ffffffffffffffffffffffffffffffffffffffff1602179055508173ffffffffffffffffffffffffffffffffffffffff168173ffffffffffffffffffffffffffffffffffffffff167f8be0079c531659141344cd1fd0a4f28419497f9722a3daafe3b4186f6b6457e060405160405180910390a35050565b6000604051905090565b600080fd5b600080fd5b600080fd5b600080fd5b6000601f19601f8301169050919050565b7f4e487b7100000000000000000000000000000000000000000000000000000000600052604160045260246000fd5b620001be8262000173565b810181811067ffffffffffffffff82111715620001e057620001df62000184565b5b80604052505050565b6000620001f562000155565b9050620002038282620001b3565b919050565b600067ffffffffffffffff82111562000226576200022562000184565b5b620002318262000173565b9050602081019050919050565b60005b838110156200025e57808201518184015260208101905062000241565b60008484015250505050565b6000620002816200027b8462000208565b620001e9565b905082815260208101848484011115620002a0576200029f6200016e565b5b620002ad8482856200023e565b509392505050565b600082601f830112620002cd57620002cc62000169565b5b8151620002df8482602086016200026a565b91505092915050565b600080604083850312156200030257620003016200015f565b5b600083015167ffffffffffffffff81111562000323576200032262000164565b5b6200033185828601620002b5565b925050602083015167ffffffffffffffff81111562000355576200035462000164565b5b6200036385828601620002b5565b9150509250929050565b600081519050919050565b7f4e487b7100000000000000000000000000000000000000000000000000000000600052602260045260246000fd5b60006002820490506001821680620003c057607f821691505b602082108103620003d657620003d562000378565b5b50919050565b60008190508160005260206000209050919050565b60006020601f8301049050919050565b600082821b905092915050565b600060088302620004407fffffffffffffffffffffffffffffffffffffffffffffffffffffffffffffffff8262000401565b6200044c868362000401565b95508019841693508086168417925050509392505050565b6000819050919050565b6000819050919050565b600062000499620004936200048d8462000464565b6200046e565b62000464565b9050919050565b6000819050919050565b620004b58362000478565b620004cd620004c482620004a0565b8484546200040e565b825550505050565b600090565b620004e4620004d5565b620004f1818484620004aa565b505050565b5b8181101562000519576200050d600082620004da565b600181019050620004f7565b5050565b601f82111562000568576200053281620003dc565b6200053d84620003f1565b810160208510156200054d578190505b620005656200055c85620003f1565b830182620004f6565b50505b505050565b600082821c905092915050565b60006200058d600019846008026200056d565b1980831691505092915050565b6000620005a883836200057a565b9150826002028217905092915050565b620005c3826200036d565b67ffffffffffffffff811115620005df57620005de62000184565b5b620005eb8254620003a7565b620005f88282856200051d565b600060209050601f8311600181146200063057600084156200061b578287015190505b6200062785826200059a565b86555062000697565b601f1984166200064086620003dc565b60005b828110156200066a5784890151825560018201915060208501945060208101905062000643565b868310156200068a578489015162000686601f8916826200057a565b8355505b6001600288020188555050505b505050505050565b612ced80620006af6000396000f3fe608060405234801561001057600080fd5b50600436106101215760003560e01c8063715018a6116100ad578063b88d4fde11610071578063b88d4fde14610308578063c87b56dd14610324578063d85d3d2714610354578063e985e9c514610370578063f2fde38b146103a057610121565b8063715018a614610288578063840a2ab8146102925780638da5cb5b146102b057806395d89b41146102ce578063a22cb465146102ec57610121565b806323b872dd116100f457806323b872dd146101c057806342842e0e146101dc5780636352211e146101f857806369b262b61461022857806370a082311461025857610121565b806301ffc9a71461012657806306fdde0314610156578063081812fc14610174578063095ea7b3146101a4575b600080fd5b610140600480360381019061013b9190611a09565b6103bc565b60405161014d9190611a51565b60405180910390f35b61015e61049e565b60405161016b9190611afc565b60405180910390f35b61018e60048036038101906101899190611b54565b610530565b60405161019b9190611bc2565b60405180910390f35b6101be60048036038101906101b99190611c09565b610576565b005b6101da60048036038101906101d59190611c49565b61068d565b005b6101f660048036038101906101f19190611c49565b6106ed565b005b610212600480360381019061020d9190611b54565b61070d565b60405161021f9190611bc2565b60405180910390f35b610242600480360381019061023d9190611c09565b6107be565b60405161024f9190611cab565b60405180910390f35b610272600480360381019061026d9190611cc6565b6107ef565b60405161027f9190611cab565b60405180910390f35b6102906108a6565b005b61029a6108ba565b6040516102a79190611db1565b60405180910390f35b6102b861094f565b6040516102c59190611bc2565b60405180910390f35b6102d6610979565b6040516102e39190611afc565b60405180910390f35b61030660048036038101906103019190611dff565b610a0b565b005b610322600480360381019061031d9190611f74565b610a21565b005b61033e60048036038101906103399190611b54565b610a83565b60405161034b9190611afc565b60405180910390f35b61036e60048036038101906103699190612098565b610b70565b005b61038a600480360381019061038591906120e1565b610c06565b6040516103979190611a51565b60405180910390f35b6103ba60048036038101906103b59190611cc6565b610c9a565b005b60007f80ac58cd000000000000000000000000000000000000000000000000000000007bffffffffffffffffffffffffffffffffffffffffffffffffffffffff1916827bffffffffffffffffffffffffffffffffffffffffffffffffffffffff1916148061048757507f5b5e139f000000000000000000000000000000000000000000000000000000007bffffffffffffffffffffffffffffffffffffffffffffffffffffffff1916827bffffffffffffffffffffffffffffffffffffffffffffffffffffffff1916145b80610497575061049682610d1d565b5b9050919050565b6060600080546104ad90612150565b80601f01602080910402602001604051908101604052809291908181526020018280546104d990612150565b80156105265780601f106104fb57610100808354040283529160200191610526565b820191906000526020600020905b81548152906001019060200180831161050957829003601f168201915b5050505050905090565b600061053b82610d87565b6004600083815260200190815260200160002060009054906101000a900473ffffffffffffffffffffffffffffffffffffffff169050919050565b60006105818261070d565b90508073ffffffffffffffffffffffffffffffffffffffff168373ffffffffffffffffffffffffffffffffffffffff16036105f1576040517f08c379a00000000000000000000000000000000000000000000000000000000081526004016105e8906121f3565b60405180910390fd5b8073ffffffffffffffffffffffffffffffffffffffff16610610610dd2565b73ffffffffffffffffffffffffffffffffffffffff16148061063f575061063e81610639610dd2565b610c06565b5b61067e576040517f08c379a000000000000000000000000000000000000000000000000000000000815260040161067590612285565b60405180910390fd5b6106888383610dda565b505050565b61069e610698610dd2565b82610e93565b6106dd576040517f08c379a00000000000000000000000000000000000000000000000000000000081526004016106d490612317565b60405180910390fd5b6106e8838383610f28565b505050565b61070883838360405180602001604052806000815250610a21565b505050565b6000806002600084815260200190815260200160002060009054906101000a900473ffffffffffffffffffffffffffffffffffffffff169050600073ffffffffffffffffffffffffffffffffffffffff168173ffffffffffffffffffffffffffffffffffffffff16036107b5576040517f08c379a00000000000000000000000000000000000000000000000000000000081526004016107ac90612383565b60405180910390fd5b80915050919050565b600960205281600052604060002081815481106107da57600080fd5b90600052602060002001600091509150505481565b60008073ffffffffffffffffffffffffffffffffffffffff168273ffffffffffffffffffffffffffffffffffffffff160361085f576040517f08c379a000000000000000000000000000000000000000000000000000000000815260040161085690612415565b60405180910390fd5b600360008373ffffffffffffffffffffffffffffffffffffffff1673ffffffffffffffffffffffffffffffffffffffff168152602001908152602001600020549050919050565b6108ae61118e565b6108b8600061120c565b565b6060600960003373ffffffffffffffffffffffffffffffffffffffff1673ffffffffffffffffffffffffffffffffffffffff16815260200190815260200160002080548060200260200160405190810160405280929190818152602001828054801561094557602002820191906000526020600020905b815481526020019060010190808311610931575b5050505050905090565b6000600660009054906101000a900473ffffffffffffffffffffffffffffffffffffffff16905090565b60606001805461098890612150565b80601f01602080910402602001604051908101604052809291908181526020018280546109b490612150565b8015610a015780601f106109d657610100808354040283529160200191610a01565b820191906000526020600020905b8154815290600101906020018083116109e457829003601f168201915b5050505050905090565b610a1d610a16610dd2565b83836112d2565b5050565b610a32610a2c610dd2565b83610e93565b610a71576040517f08c379a0000000000000000000000000000000000000000000000000000000008152600401610a6890612317565b60405180910390fd5b610a7d8484848461143e565b50505050565b6060610a8e8261149a565b610acd576040517f08c379a0000000000000000000000000000000000000000000000000000000008152600401610ac4906124a7565b60405180910390fd5b600860008381526020019081526020016000208054610aeb90612150565b80601f0160208091040260200160405190810160405280929190818152602001828054610b1790612150565b8015610b645780601f10610b3957610100808354040283529160200191610b64565b820191906000526020600020905b815481529060010190602001808311610b4757829003601f168201915b50505050509050919050565b6000610b7c6007611506565b9050610b886007611514565b610b92338261152a565b610b9c8183611548565b600960003373ffffffffffffffffffffffffffffffffffffffff1673ffffffffffffffffffffffffffffffffffffffff1681526020019081526020016000208190806001815401808255809150506001900390600052602060002001600090919091909150555050565b6000600560008473ffffffffffffffffffffffffffffffffffffffff1673ffffffffffffffffffffffffffffffffffffffff16815260200190815260200160002060008373ffffffffffffffffffffffffffffffffffffffff1673ffffffffffffffffffffffffffffffffffffffff16815260200190815260200160002060009054906101000a900460ff16905092915050565b610ca261118e565b600073ffffffffffffffffffffffffffffffffffffffff168173ffffffffffffffffffffffffffffffffffffffff1603610d11576040517f08c379a0000000000000000000000000000000000000000000000000000000008152600401610d0890612539565b60405180910390fd5b610d1a8161120c565b50565b60007f01ffc9a7000000000000000000000000000000000000000000000000000000007bffffffffffffffffffffffffffffffffffffffffffffffffffffffff1916827bffffffffffffffffffffffffffffffffffffffffffffffffffffffff1916149050919050565b610d908161149a565b610dcf576040517f08c379a0000000000000000000000000000000000000000000000000000000008152600401610dc690612383565b60405180910390fd5b50565b600033905090565b816004600083815260200190815260200160002060006101000a81548173ffffffffffffffffffffffffffffffffffffffff021916908373ffffffffffffffffffffffffffffffffffffffff160217905550808273ffffffffffffffffffffffffffffffffffffffff16610e4d8361070d565b73ffffffffffffffffffffffffffffffffffffffff167f8c5be1e5ebec7d5bd14f71427d1e84f3dd0314c0f7b2291e5b200ac8c7c3b92560405160405180910390a45050565b600080610e9f8361070d565b90508073ffffffffffffffffffffffffffffffffffffffff168473ffffffffffffffffffffffffffffffffffffffff161480610ee15750610ee08185610c06565b5b80610f1f57508373ffffffffffffffffffffffffffffffffffffffff16610f0784610530565b73ffffffffffffffffffffffffffffffffffffffff16145b91505092915050565b8273ffffffffffffffffffffffffffffffffffffffff16610f488261070d565b73ffffffffffffffffffffffffffffffffffffffff1614610f9e576040517f08c379a0000000000000000000000000000000000000000000000000000000008152600401610f95906125cb565b60405180910390fd5b600073ffffffffffffffffffffffffffffffffffffffff168273ffffffffffffffffffffffffffffffffffffffff160361100d576040517f08c379a00000000000000000000000000000000000000000000000000000000081526004016110049061265d565b60405180910390fd5b6110188383836115b5565b611023600082610dda565b6001600360008573ffffffffffffffffffffffffffffffffffffffff1673ffffffffffffffffffffffffffffffffffffffff168152602001908152602001600020600082825461107391906126ac565b925050819055506001600360008473ffffffffffffffffffffffffffffffffffffffff1673ffffffffffffffffffffffffffffffffffffffff16815260200190815260200160002060008282546110ca91906126e0565b92505081905550816002600083815260200190815260200160002060006101000a81548173ffffffffffffffffffffffffffffffffffffffff021916908373ffffffffffffffffffffffffffffffffffffffff160217905550808273ffffffffffffffffffffffffffffffffffffffff168473ffffffffffffffffffffffffffffffffffffffff167fddf252ad1be2c89b69c2b068fc378daa952ba7f163c4a11628f55a4df523b3ef60405160405180910390a46111898383836115ba565b505050565b611196610dd2565b73ffffffffffffffffffffffffffffffffffffffff166111b461094f565b73ffffffffffffffffffffffffffffffffffffffff161461120a576040517f08c379a000000000000000000000000000000000000000000000000000000000815260040161120190612760565b60405180910390fd5b565b6000600660009054906101000a900473ffffffffffffffffffffffffffffffffffffffff16905081600660006101000a81548173ffffffffffffffffffffffffffffffffffffffff021916908373ffffffffffffffffffffffffffffffffffffffff1602179055508173ffffffffffffffffffffffffffffffffffffffff168173ffffffffffffffffffffffffffffffffffffffff167f8be0079c531659141344cd1fd0a4f28419497f9722a3daafe3b4186f6b6457e060405160405180910390a35050565b8173ffffffffffffffffffffffffffffffffffffffff168373ffffffffffffffffffffffffffffffffffffffff1603611340576040517f08c379a0000000000000000000000000000000000000000000000000000000008152600401611337906127cc565b60405180910390fd5b80600560008573ffffffffffffffffffffffffffffffffffffffff1673ffffffffffffffffffffffffffffffffffffffff16815260200190815260200160002060008473ffffffffffffffffffffffffffffffffffffffff1673ffffffffffffffffffffffffffffffffffffffff16815260200190815260200160002060006101000a81548160ff0219169083151502179055508173ffffffffffffffffffffffffffffffffffffffff168373ffffffffffffffffffffffffffffffffffffffff167f17307eab39ab6107e8899845ad3d59bd9653f200f220920489ca2b5937696c31836040516114319190611a51565b60405180910390a3505050565b611449848484610f28565b611455848484846115bf565b611494576040517f08c379a000000000000000000000000000000000000000000000000000000000815260040161148b9061285e565b60405180910390fd5b50505050565b60008073ffffffffffffffffffffffffffffffffffffffff166002600084815260200190815260200160002060009054906101000a900473ffffffffffffffffffffffffffffffffffffffff1673ffffffffffffffffffffffffffffffffffffffff1614159050919050565b600081600001549050919050565b6001816000016000828254019250508190555050565b611544828260405180602001604052806000815250611746565b5050565b6115518261149a565b611590576040517f08c379a0000000000000000000000000000000000000000000000000000000008152600401611587906124a7565b60405180910390fd5b806008600084815260200190815260200160002090816115b09190612a2a565b505050565b505050565b505050565b60006115e08473ffffffffffffffffffffffffffffffffffffffff166117a1565b15611739578373ffffffffffffffffffffffffffffffffffffffff1663150b7a02611609610dd2565b8786866040518563ffffffff1660e01b815260040161162b9493929190612b51565b6020604051808303816000875af192505050801561166757506040513d601f19601f820116820180604052508101906116649190612bb2565b60015b6116e9573d8060008114611697576040519150601f19603f3d011682016040523d82523d6000602084013e61169c565b606091505b5060008151036116e1576040517f08c379a00000000000000000000000000000000000000000000000000000000081526004016116d89061285e565b60405180910390fd5b805181602001fd5b63150b7a0260e01b7bffffffffffffffffffffffffffffffffffffffffffffffffffffffff1916817bffffffffffffffffffffffffffffffffffffffffffffffffffffffff19161491505061173e565b600190505b949350505050565b61175083836117c4565b61175d60008484846115bf565b61179c576040517f08c379a00000000000000000000000000000000000000000000000000000000081526004016117939061285e565b60405180910390fd5b505050565b6000808273ffffffffffffffffffffffffffffffffffffffff163b119050919050565b600073ffffffffffffffffffffffffffffffffffffffff168273ffffffffffffffffffffffffffffffffffffffff1603611833576040517f08c379a000000000000000000000000000000000000000000000000000000000815260040161182a90612c2b565b60405180910390fd5b61183c8161149a565b1561187c576040517f08c379a000000000000000000000000000000000000000000000000000000000815260040161187390612c97565b60405180910390fd5b611888600083836115b5565b6001600360008473ffffffffffffffffffffffffffffffffffffffff1673ffffffffffffffffffffffffffffffffffffffff16815260200190815260200160002060008282546118d891906126e0565b92505081905550816002600083815260200190815260200160002060006101000a81548173ffffffffffffffffffffffffffffffffffffffff021916908373ffffffffffffffffffffffffffffffffffffffff160217905550808273ffffffffffffffffffffffffffffffffffffffff16600073ffffffffffffffffffffffffffffffffffffffff167fddf252ad1be2c89b69c2b068fc378daa952ba7f163c4a11628f55a4df523b3ef60405160405180910390a4611999600083836115ba565b5050565b6000604051905090565b600080fd5b600080fd5b60007fffffffff0000000000000000000000000000000000000000000000000000000082169050919050565b6119e6816119b1565b81146119f157600080fd5b50565b600081359050611a03816119dd565b92915050565b600060208284031215611a1f57611a1e6119a7565b5b6000611a2d848285016119f4565b91505092915050565b60008115159050919050565b611a4b81611a36565b82525050565b6000602082019050611a666000830184611a42565b92915050565b600081519050919050565b600082825260208201905092915050565b60005b83811015611aa6578082015181840152602081019050611a8b565b60008484015250505050565b6000601f19601f8301169050919050565b6000611ace82611a6c565b611ad88185611a77565b9350611ae8818560208601611a88565b611af181611ab2565b840191505092915050565b60006020820190508181036000830152611b168184611ac3565b905092915050565b6000819050919050565b611b3181611b1e565b8114611b3c57600080fd5b50565b600081359050611b4e81611b28565b92915050565b600060208284031215611b6a57611b696119a7565b5b6000611b7884828501611b3f565b91505092915050565b600073ffffffffffffffffffffffffffffffffffffffff82169050919050565b6000611bac82611b81565b9050919050565b611bbc81611ba1565b82525050565b6000602082019050611bd76000830184611bb3565b92915050565b611be681611ba1565b8114611bf157600080fd5b50565b600081359050611c0381611bdd565b92915050565b60008060408385031215611c2057611c1f6119a7565b5b6000611c2e85828601611bf4565b9250506020611c3f85828601611b3f565b9150509250929050565b600080600060608486031215611c6257611c616119a7565b5b6000611c7086828701611bf4565b9350506020611c8186828701611bf4565b9250506040611c9286828701611b3f565b9150509250925092565b611ca581611b1e565b82525050565b6000602082019050611cc06000830184611c9c565b92915050565b600060208284031215611cdc57611cdb6119a7565b5b6000611cea84828501611bf4565b91505092915050565b600081519050919050565b600082825260208201905092915050565b6000819050602082019050919050565b611d2881611b1e565b82525050565b6000611d3a8383611d1f565b60208301905092915050565b6000602082019050919050565b6000611d5e82611cf3565b611d688185611cfe565b9350611d7383611d0f565b8060005b83811015611da4578151611d8b8882611d2e565b9750611d9683611d46565b925050600181019050611d77565b5085935050505092915050565b60006020820190508181036000830152611dcb8184611d53565b905092915050565b611ddc81611a36565b8114611de757600080fd5b50565b600081359050611df981611dd3565b92915050565b60008060408385031215611e1657611e156119a7565b5b6000611e2485828601611bf4565b9250506020611e3585828601611dea565b9150509250929050565b600080fd5b600080fd5b7f4e487b7100000000000000000000000000000000000000000000000000000000600052604160045260246000fd5b611e8182611ab2565b810181811067ffffffffffffffff82111715611ea057611e9f611e49565b5b80604052505050565b6000611eb361199d565b9050611ebf8282611e78565b919050565b600067ffffffffffffffff821115611edf57611ede611e49565b5b611ee882611ab2565b9050602081019050919050565b82818337600083830152505050565b6000611f17611f1284611ec4565b611ea9565b905082815260208101848484011115611f3357611f32611e44565b5b611f3e848285611ef5565b509392505050565b600082601f830112611f5b57611f5a611e3f565b5b8135611f6b848260208601611f04565b91505092915050565b60008060008060808587031215611f8e57611f8d6119a7565b5b6000611f9c87828801611bf4565b9450506020611fad87828801611bf4565b9350506040611fbe87828801611b3f565b925050606085013567ffffffffffffffff811115611fdf57611fde6119ac565b5b611feb87828801611f46565b91505092959194509250565b600067ffffffffffffffff82111561201257612011611e49565b5b61201b82611ab2565b9050602081019050919050565b600061203b61203684611ff7565b611ea9565b90508281526020810184848401111561205757612056611e44565b5b612062848285611ef5565b509392505050565b600082601f83011261207f5761207e611e3f565b5b813561208f848260208601612028565b91505092915050565b6000602082840312156120ae576120ad6119a7565b5b600082013567ffffffffffffffff8111156120cc576120cb6119ac565b5b6120d88482850161206a565b91505092915050565b600080604083850312156120f8576120f76119a7565b5b600061210685828601611bf4565b925050602061211785828601611bf4565b9150509250929050565b7f4e487b7100000000000000000000000000000000000000000000000000000000600052602260045260246000fd5b6000600282049050600182168061216857607f821691505b60208210810361217b5761217a612121565b5b50919050565b7f4552433732313a20617070726f76616c20746f2063757272656e74206f776e6560008201527f7200000000000000000000000000000000000000000000000000000000000000602082015250565b60006121dd602183611a77565b91506121e882612181565b604082019050919050565b6000602082019050818103600083015261220c816121d0565b9050919050565b7f4552433732313a20617070726f76652063616c6c6572206973206e6f7420746f60008201527f6b656e206f776e6572206e6f7220617070726f76656420666f7220616c6c0000602082015250565b600061226f603e83611a77565b915061227a82612213565b604082019050919050565b6000602082019050818103600083015261229e81612262565b9050919050565b7f4552433732313a2063616c6c6572206973206e6f7420746f6b656e206f776e6560008201527f72206e6f7220617070726f766564000000000000000000000000000000000000602082015250565b6000612301602e83611a77565b915061230c826122a5565b604082019050919050565b60006020820190508181036000830152612330816122f4565b9050919050565b7f4552433732313a20696e76616c696420746f6b656e2049440000000000000000600082015250565b600061236d601883611a77565b915061237882612337565b602082019050919050565b6000602082019050818103600083015261239c81612360565b9050919050565b7f4552433732313a2061646472657373207a65726f206973206e6f74206120766160008201527f6c6964206f776e65720000000000000000000000000000000000000000000000602082015250565b60006123ff602983611a77565b915061240a826123a3565b604082019050919050565b6000602082019050818103600083015261242e816123f2565b9050919050565b7f4552433732314d657461646174613a2055524920736574206f66206e6f6e657860008201527f697374656e7420746f6b656e0000000000000000000000000000000000000000602082015250565b6000612491602c83611a77565b915061249c82612435565b604082019050919050565b600060208201905081810360008301526124c081612484565b9050919050565b7f4f776e61626c653a206e6577206f776e657220697320746865207a65726f206160008201527f6464726573730000000000000000000000000000000000000000000000000000602082015250565b6000612523602683611a77565b915061252e826124c7565b604082019050919050565b6000602082019050818103600083015261255281612516565b9050919050565b7f4552433732313a207472616e736665722066726f6d20696e636f72726563742060008201527f6f776e6572000000000000000000000000000000000000000000000000000000602082015250565b60006125b5602583611a77565b91506125c082612559565b604082019050919050565b600060208201905081810360008301526125e4816125a8565b9050919050565b7f4552433732313a207472616e7366657220746f20746865207a65726f2061646460008201527f7265737300000000000000000000000000000000000000000000000000000000602082015250565b6000612647602483611a77565b9150612652826125eb565b604082019050919050565b600060208201905081810360008301526126768161263a565b9050919050565b7f4e487b7100000000000000000000000000000000000000000000000000000000600052601160045260246000fd5b60006126b782611b1e565b91506126c283611b1e565b92508282039050818111156126da576126d961267d565b5b92915050565b60006126eb82611b1e565b91506126f683611b1e565b925082820190508082111561270e5761270d61267d565b5b92915050565b7f4f776e61626c653a2063616c6c6572206973206e6f7420746865206f776e6572600082015250565b600061274a602083611a77565b915061275582612714565b602082019050919050565b600060208201905081810360008301526127798161273d565b9050919050565b7f4552433732313a20617070726f766520746f2063616c6c657200000000000000600082015250565b60006127b6601983611a77565b91506127c182612780565b602082019050919050565b600060208201905081810360008301526127e5816127a9565b9050919050565b7f4552433732313a207472616e7366657220746f206e6f6e20455243373231526560008201527f63656976657220696d706c656d656e7465720000000000000000000000000000602082015250565b6000612848603283611a77565b9150612853826127ec565b604082019050919050565b600060208201905081810360008301526128778161283b565b9050919050565b60008190508160005260206000209050919050565b60006020601f8301049050919050565b600082821b905092915050565b6000600883026128e07fffffffffffffffffffffffffffffffffffffffffffffffffffffffffffffffff826128a3565b6128ea86836128a3565b95508019841693508086168417925050509392505050565b6000819050919050565b600061292761292261291d84611b1e565b612902565b611b1e565b9050919050565b6000819050919050565b6129418361290c565b61295561294d8261292e565b8484546128b0565b825550505050565b600090565b61296a61295d565b612975818484612938565b505050565b5b818110156129995761298e600082612962565b60018101905061297b565b5050565b601f8211156129de576129af8161287e565b6129b884612893565b810160208510156129c7578190505b6129db6129d385612893565b83018261297a565b50505b505050565b600082821c905092915050565b6000612a01600019846008026129e3565b1980831691505092915050565b6000612a1a83836129f0565b9150826002028217905092915050565b612a3382611a6c565b67ffffffffffffffff811115612a4c57612a4b611e49565b5b612a568254612150565b612a6182828561299d565b600060209050601f831160018114612a945760008415612a82578287015190505b612a8c8582612a0e565b865550612af4565b601f198416612aa28661287e565b60005b82811015612aca57848901518255600182019150602085019450602081019050612aa5565b86831015612ae75784890151612ae3601f8916826129f0565b8355505b6001600288020188555050505b505050505050565b600081519050919050565b600082825260208201905092915050565b6000612b2382612afc565b612b2d8185612b07565b9350612b3d818560208601611a88565b612b4681611ab2565b840191505092915050565b6000608082019050612b666000830187611bb3565b612b736020830186611bb3565b612b806040830185611c9c565b8181036060830152612b928184612b18565b905095945050505050565b600081519050612bac816119dd565b92915050565b600060208284031215612bc857612bc76119a7565b5b6000612bd684828501612b9d565b91505092915050565b7f4552433732313a206d696e7420746f20746865207a65726f2061646472657373600082015250565b6000612c15602083611a77565b9150612c2082612bdf565b602082019050919050565b60006020820190508181036000830152612c4481612c08565b9050919050565b7f4552433732313a20746f6b656e20616c7265616479206d696e74656400000000600082015250565b6000612c81601c83611a77565b9150612c8c82612c4b565b602082019050919050565b60006020820190508181036000830152612cb081612c74565b905091905056fea2646970667358221220731afc392f489683cc79a45bd616f8befd2eb8030e90f295bc03336f95151b0764736f6c63430008110033",
  "linkReferences": {},
  "deployedLinkReferences": {}
}