{
  "_format": "hh-sol-artifact-1",
  "contractName": "Shoppingverse",
  "sourceName": "contracts/Shoppingverse.sol",
  "abi": [
    {
      "inputs": [],
      "stateMutability": "nonpayable",
      "type": "constructor"
    },
    {
      "inputs": [
        {
          "internalType": "string",
          "name": "_productId",
          "type": "string"
        },
        {
          "internalType": "string",
          "name": "_productName",
          "type": "string"
        },
        {
          "internalType": "string",
          "name": "_productDescription",
          "type": "string"
        },
        {
          "internalType": "string[]",
          "name": "_productGallery",
          "type": "string[]"
        },
        {
          "internalType": "string",
          "name": "_productPriceInr",
          "type": "string"
        },
        {
          "internalType": "uint256",
          "name": "_productPriceEth",
          "type": "uint256"
        }
      ],
      "name": "addProduct",
      "outputs": [],
      "stateMutability": "nonpayable",
      "type": "function"
    },
    {
      "inputs": [
        {
          "internalType": "bool",
          "name": "sellerAccount",
          "type": "bool"
        },
        {
          "internalType": "string",
          "name": "_imgURL",
          "type": "string"
        },
        {
          "internalType": "string",
          "name": "_name",
          "type": "string"
        },
        {
          "internalType": "string",
          "name": "_email",
          "type": "string"
        },
        {
          "internalType": "string",
          "name": "_phone",
          "type": "string"
        },
        {
          "internalType": "string",
          "name": "_dob",
          "type": "string"
        },
        {
          "internalType": "string",
          "name": "_gender",
          "type": "string"
        },
        {
          "internalType": "string",
          "name": "_addr",
          "type": "string"
        },
        {
          "internalType": "string",
          "name": "_city",
          "type": "string"
        },
        {
          "internalType": "string",
          "name": "_pinCode",
          "type": "string"
        }
      ],
      "name": "addUser",
      "outputs": [],
      "stateMutability": "payable",
      "type": "function"
    },
    {
      "inputs": [
        {
          "internalType": "string",
          "name": "_productId",
          "type": "string"
        }
      ],
      "name": "buyProduct",
      "outputs": [],
      "stateMutability": "payable",
      "type": "function"
    },
    {
      "inputs": [
        {
          "internalType": "string",
          "name": "_productId",
          "type": "string"
        }
      ],
      "name": "deleteProduct",
      "outputs": [],
      "stateMutability": "nonpayable",
      "type": "function"
    },
    {
      "inputs": [],
      "name": "getAllProducts",
      "outputs": [
        {
          "components": [
            {
              "internalType": "string",
              "name": "productId",
              "type": "string"
            },
            {
              "internalType": "string",
              "name": "productName",
              "type": "string"
            },
            {
              "internalType": "string",
              "name": "productDescription",
              "type": "string"
            },
            {
              "internalType": "string[]",
              "name": "productGallery",
              "type": "string[]"
            },
            {
              "internalType": "string",
              "name": "productPriceInr",
              "type": "string"
            },
            {
              "internalType": "uint256",
              "name": "productPriceEth",
              "type": "uint256"
            },
            {
              "internalType": "address payable",
              "name": "seller",
              "type": "address"
            }
          ],
          "internalType": "struct SharedStructs.Product[]",
          "name": "",
          "type": "tuple[]"
        }
      ],
      "stateMutability": "view",
      "type": "function"
    },
    {
      "inputs": [
        {
          "internalType": "string[]",
          "name": "_productId",
          "type": "string[]"
        }
      ],
      "name": "getCart",
      "outputs": [
        {
          "components": [
            {
              "internalType": "string",
              "name": "productId",
              "type": "string"
            },
            {
              "internalType": "string",
              "name": "productName",
              "type": "string"
            },
            {
              "internalType": "string",
              "name": "productDescription",
              "type": "string"
            },
            {
              "internalType": "string[]",
              "name": "productGallery",
              "type": "string[]"
            },
            {
              "internalType": "string",
              "name": "productPriceInr",
              "type": "string"
            },
            {
              "internalType": "uint256",
              "name": "productPriceEth",
              "type": "uint256"
            },
            {
              "internalType": "address payable",
              "name": "seller",
              "type": "address"
            }
          ],
          "internalType": "struct SharedStructs.Product[]",
          "name": "",
          "type": "tuple[]"
        }
      ],
      "stateMutability": "view",
      "type": "function"
    },
    {
      "inputs": [
        {
          "internalType": "string",
          "name": "_id",
          "type": "string"
        }
      ],
      "name": "getOrder",
      "outputs": [
        {
          "components": [
            {
              "internalType": "string",
              "name": "id",
              "type": "string"
            },
            {
              "internalType": "string",
              "name": "date",
              "type": "string"
            },
            {
              "components": [
                {
                  "internalType": "address",
                  "name": "walletAddress",
                  "type": "address"
                },
                {
                  "internalType": "string",
                  "name": "imgURL",
                  "type": "string"
                },
                {
                  "internalType": "string",
                  "name": "name",
                  "type": "string"
                },
                {
                  "internalType": "string",
                  "name": "email",
                  "type": "string"
                },
                {
                  "internalType": "string",
                  "name": "phone",
                  "type": "string"
                },
                {
                  "internalType": "string",
                  "name": "dob",
                  "type": "string"
                },
                {
                  "internalType": "string",
                  "name": "gender",
                  "type": "string"
                },
                {
                  "internalType": "string",
                  "name": "addr",
                  "type": "string"
                },
                {
                  "internalType": "string",
                  "name": "city",
                  "type": "string"
                },
                {
                  "internalType": "string",
                  "name": "pinCode",
                  "type": "string"
                },
                {
                  "internalType": "bool",
                  "name": "isSeller",
                  "type": "bool"
                },
                {
                  "internalType": "bool",
                  "name": "isBuyer",
                  "type": "bool"
                }
              ],
              "internalType": "struct SharedStructs.User",
              "name": "buyer",
              "type": "tuple"
            },
            {
              "components": [
                {
                  "internalType": "string",
                  "name": "productId",
                  "type": "string"
                },
                {
                  "internalType": "string",
                  "name": "productName",
                  "type": "string"
                },
                {
                  "internalType": "string",
                  "name": "productDescription",
                  "type": "string"
                },
                {
                  "internalType": "string[]",
                  "name": "productGallery",
                  "type": "string[]"
                },
                {
                  "internalType": "string",
                  "name": "productPriceInr",
                  "type": "string"
                },
                {
                  "internalType": "uint256",
                  "name": "productPriceEth",
                  "type": "uint256"
                },
                {
                  "internalType": "address payable",
                  "name": "seller",
                  "type": "address"
                }
              ],
              "internalType": "struct SharedStructs.Product",
              "name": "product",
              "type": "tuple"
            },
            {
              "internalType": "int256",
              "name": "qty",
              "type": "int256"
            },
            {
              "internalType": "uint256",
              "name": "shippingPriceEth",
              "type": "uint256"
            },
            {
              "internalType": "string",
              "name": "status",
              "type": "string"
            }
          ],
          "internalType": "struct SharedStructs.Order",
          "name": "",
          "type": "tuple"
        }
      ],
      "stateMutability": "view",
      "type": "function"
    },
    {
      "inputs": [],
      "name": "getOrders",
      "outputs": [
        {
          "components": [
            {
              "internalType": "string",
              "name": "id",
              "type": "string"
            },
            {
              "internalType": "string",
              "name": "date",
              "type": "string"
            },
            {
              "components": [
                {
                  "internalType": "address",
                  "name": "walletAddress",
                  "type": "address"
                },
                {
                  "internalType": "string",
                  "name": "imgURL",
                  "type": "string"
                },
                {
                  "internalType": "string",
                  "name": "name",
                  "type": "string"
                },
                {
                  "internalType": "string",
                  "name": "email",
                  "type": "string"
                },
                {
                  "internalType": "string",
                  "name": "phone",
                  "type": "string"
                },
                {
                  "internalType": "string",
                  "name": "dob",
                  "type": "string"
                },
                {
                  "internalType": "string",
                  "name": "gender",
                  "type": "string"
                },
                {
                  "internalType": "string",
                  "name": "addr",
                  "type": "string"
                },
                {
                  "internalType": "string",
                  "name": "city",
                  "type": "string"
                },
                {
                  "internalType": "string",
                  "name": "pinCode",
                  "type": "string"
                },
                {
                  "internalType": "bool",
                  "name": "isSeller",
                  "type": "bool"
                },
                {
                  "internalType": "bool",
                  "name": "isBuyer",
                  "type": "bool"
                }
              ],
              "internalType": "struct SharedStructs.User",
              "name": "buyer",
              "type": "tuple"
            },
            {
              "components": [
                {
                  "internalType": "string",
                  "name": "productId",
                  "type": "string"
                },
                {
                  "internalType": "string",
                  "name": "productName",
                  "type": "string"
                },
                {
                  "internalType": "string",
                  "name": "productDescription",
                  "type": "string"
                },
                {
                  "internalType": "string[]",
                  "name": "productGallery",
                  "type": "string[]"
                },
                {
                  "internalType": "string",
                  "name": "productPriceInr",
                  "type": "string"
                },
                {
                  "internalType": "uint256",
                  "name": "productPriceEth",
                  "type": "uint256"
                },
                {
                  "internalType": "address payable",
                  "name": "seller",
                  "type": "address"
                }
              ],
              "internalType": "struct SharedStructs.Product",
              "name": "product",
              "type": "tuple"
            },
            {
              "internalType": "int256",
              "name": "qty",
              "type": "int256"
            },
            {
              "internalType": "uint256",
              "name": "shippingPriceEth",
              "type": "uint256"
            },
            {
              "internalType": "string",
              "name": "status",
              "type": "string"
            }
          ],
          "internalType": "struct SharedStructs.Order[]",
          "name": "",
          "type": "tuple[]"
        }
      ],
      "stateMutability": "view",
      "type": "function"
    },
    {
      "inputs": [
        {
          "internalType": "string",
          "name": "_id",
          "type": "string"
        }
      ],
      "name": "getProduct",
      "outputs": [
        {
          "components": [
            {
              "internalType": "string",
              "name": "productId",
              "type": "string"
            },
            {
              "internalType": "string",
              "name": "productName",
              "type": "string"
            },
            {
              "internalType": "string",
              "name": "productDescription",
              "type": "string"
            },
            {
              "internalType": "string[]",
              "name": "productGallery",
              "type": "string[]"
            },
            {
              "internalType": "string",
              "name": "productPriceInr",
              "type": "string"
            },
            {
              "internalType": "uint256",
              "name": "productPriceEth",
              "type": "uint256"
            },
            {
              "internalType": "address payable",
              "name": "seller",
              "type": "address"
            }
          ],
          "internalType": "struct SharedStructs.Product",
          "name": "",
          "type": "tuple"
        }
      ],
      "stateMutability": "view",
      "type": "function"
    },
    {
      "inputs": [],
      "name": "getSellerOrders",
      "outputs": [
        {
          "components": [
            {
              "internalType": "string",
              "name": "id",
              "type": "string"
            },
            {
              "internalType": "string",
              "name": "date",
              "type": "string"
            },
            {
              "components": [
                {
                  "internalType": "address",
                  "name": "walletAddress",
                  "type": "address"
                },
                {
                  "internalType": "string",
                  "name": "imgURL",
                  "type": "string"
                },
                {
                  "internalType": "string",
                  "name": "name",
                  "type": "string"
                },
                {
                  "internalType": "string",
                  "name": "email",
                  "type": "string"
                },
                {
                  "internalType": "string",
                  "name": "phone",
                  "type": "string"
                },
                {
                  "internalType": "string",
                  "name": "dob",
                  "type": "string"
                },
                {
                  "internalType": "string",
                  "name": "gender",
                  "type": "string"
                },
                {
                  "internalType": "string",
                  "name": "addr",
                  "type": "string"
                },
                {
                  "internalType": "string",
                  "name": "city",
                  "type": "string"
                },
                {
                  "internalType": "string",
                  "name": "pinCode",
                  "type": "string"
                },
                {
                  "internalType": "bool",
                  "name": "isSeller",
                  "type": "bool"
                },
                {
                  "internalType": "bool",
                  "name": "isBuyer",
                  "type": "bool"
                }
              ],
              "internalType": "struct SharedStructs.User",
              "name": "buyer",
              "type": "tuple"
            },
            {
              "components": [
                {
                  "internalType": "string",
                  "name": "productId",
                  "type": "string"
                },
                {
                  "internalType": "string",
                  "name": "productName",
                  "type": "string"
                },
                {
                  "internalType": "string",
                  "name": "productDescription",
                  "type": "string"
                },
                {
                  "internalType": "string[]",
                  "name": "productGallery",
                  "type": "string[]"
                },
                {
                  "internalType": "string",
                  "name": "productPriceInr",
                  "type": "string"
                },
                {
                  "internalType": "uint256",
                  "name": "productPriceEth",
                  "type": "uint256"
                },
                {
                  "internalType": "address payable",
                  "name": "seller",
                  "type": "address"
                }
              ],
              "internalType": "struct SharedStructs.Product",
              "name": "product",
              "type": "tuple"
            },
            {
              "internalType": "int256",
              "name": "qty",
              "type": "int256"
            },
            {
              "internalType": "uint256",
              "name": "shippingPriceEth",
              "type": "uint256"
            },
            {
              "internalType": "string",
              "name": "status",
              "type": "string"
            }
          ],
          "internalType": "struct SharedStructs.Order[]",
          "name": "",
          "type": "tuple[]"
        }
      ],
      "stateMutability": "view",
      "type": "function"
    },
    {
      "inputs": [],
      "name": "getSellerProducts",
      "outputs": [
        {
          "components": [
            {
              "internalType": "string",
              "name": "productId",
              "type": "string"
            },
            {
              "internalType": "string",
              "name": "productName",
              "type": "string"
            },
            {
              "internalType": "string",
              "name": "productDescription",
              "type": "string"
            },
            {
              "internalType": "string[]",
              "name": "productGallery",
              "type": "string[]"
            },
            {
              "internalType": "string",
              "name": "productPriceInr",
              "type": "string"
            },
            {
              "internalType": "uint256",
              "name": "productPriceEth",
              "type": "uint256"
            },
            {
              "internalType": "address payable",
              "name": "seller",
              "type": "address"
            }
          ],
          "internalType": "struct SharedStructs.Product[]",
          "name": "",
          "type": "tuple[]"
        }
      ],
      "stateMutability": "view",
      "type": "function"
    },
    {
      "inputs": [],
      "name": "getUserInfo",
      "outputs": [
        {
          "components": [
            {
              "internalType": "address",
              "name": "walletAddress",
              "type": "address"
            },
            {
              "internalType": "string",
              "name": "imgURL",
              "type": "string"
            },
            {
              "internalType": "string",
              "name": "name",
              "type": "string"
            },
            {
              "internalType": "string",
              "name": "email",
              "type": "string"
            },
            {
              "internalType": "string",
              "name": "phone",
              "type": "string"
            },
            {
              "internalType": "string",
              "name": "dob",
              "type": "string"
            },
            {
              "internalType": "string",
              "name": "gender",
              "type": "string"
            },
            {
              "internalType": "string",
              "name": "addr",
              "type": "string"
            },
            {
              "internalType": "string",
              "name": "city",
              "type": "string"
            },
            {
              "internalType": "string",
              "name": "pinCode",
              "type": "string"
            },
            {
              "internalType": "bool",
              "name": "isSeller",
              "type": "bool"
            },
            {
              "internalType": "bool",
              "name": "isBuyer",
              "type": "bool"
            }
          ],
          "internalType": "struct SharedStructs.User",
          "name": "",
          "type": "tuple"
        }
      ],
      "stateMutability": "view",
      "type": "function"
    },
    {
      "inputs": [
        {
          "internalType": "string",
          "name": "_id",
          "type": "string"
        },
        {
          "internalType": "string",
          "name": "_date",
          "type": "string"
        },
        {
          "components": [
            {
              "internalType": "address",
              "name": "walletAddress",
              "type": "address"
            },
            {
              "internalType": "string",
              "name": "imgURL",
              "type": "string"
            },
            {
              "internalType": "string",
              "name": "name",
              "type": "string"
            },
            {
              "internalType": "string",
              "name": "email",
              "type": "string"
            },
            {
              "internalType": "string",
              "name": "phone",
              "type": "string"
            },
            {
              "internalType": "string",
              "name": "dob",
              "type": "string"
            },
            {
              "internalType": "string",
              "name": "gender",
              "type": "string"
            },
            {
              "internalType": "string",
              "name": "addr",
              "type": "string"
            },
            {
              "internalType": "string",
              "name": "city",
              "type": "string"
            },
            {
              "internalType": "string",
              "name": "pinCode",
              "type": "string"
            },
            {
              "internalType": "bool",
              "name": "isSeller",
              "type": "bool"
            },
            {
              "internalType": "bool",
              "name": "isBuyer",
              "type": "bool"
            }
          ],
          "internalType": "struct SharedStructs.User",
          "name": "_buyer",
          "type": "tuple"
        },
        {
          "components": [
            {
              "internalType": "string",
              "name": "productId",
              "type": "string"
            },
            {
              "internalType": "string",
              "name": "productName",
              "type": "string"
            },
            {
              "internalType": "string",
              "name": "productDescription",
              "type": "string"
            },
            {
              "internalType": "string[]",
              "name": "productGallery",
              "type": "string[]"
            },
            {
              "internalType": "string",
              "name": "productPriceInr",
              "type": "string"
            },
            {
              "internalType": "uint256",
              "name": "productPriceEth",
              "type": "uint256"
            },
            {
              "internalType": "address payable",
              "name": "seller",
              "type": "address"
            }
          ],
          "internalType": "struct SharedStructs.Product",
          "name": "_product",
          "type": "tuple"
        },
        {
          "internalType": "int256",
          "name": "_qty",
          "type": "int256"
        },
        {
          "internalType": "uint256",
          "name": "_shippingPriceInr",
          "type": "uint256"
        }
      ],
      "name": "placeOrder",
      "outputs": [],
      "stateMutability": "nonpayable",
      "type": "function"
    },
    {
      "inputs": [
        {
          "internalType": "string",
          "name": "_productId",
          "type": "string"
        },
        {
          "internalType": "string",
          "name": "_productName",
          "type": "string"
        },
        {
          "internalType": "string",
          "name": "_productDescription",
          "type": "string"
        },
        {
          "internalType": "string",
          "name": "_productPriceInr",
          "type": "string"
        },
        {
          "internalType": "uint256",
          "name": "_productPriceEth",
          "type": "uint256"
        }
      ],
      "name": "updateProduct",
      "outputs": [],
      "stateMutability": "nonpayable",
      "type": "function"
    },
    {
      "inputs": [
        {
          "internalType": "string",
          "name": "_imgURL",
          "type": "string"
        },
        {
          "internalType": "string",
          "name": "_name",
          "type": "string"
        },
        {
          "internalType": "string",
          "name": "_email",
          "type": "string"
        },
        {
          "internalType": "string",
          "name": "_phone",
          "type": "string"
        },
        {
          "internalType": "string",
          "name": "_dob",
          "type": "string"
        },
        {
          "internalType": "string",
          "name": "_gender",
          "type": "string"
        },
        {
          "internalType": "string",
          "name": "_addr",
          "type": "string"
        },
        {
          "internalType": "string",
          "name": "_city",
          "type": "string"
        },
        {
          "internalType": "string",
          "name": "_pinCode",
          "type": "string"
        }
      ],
      "name": "updateUserInfo",
      "outputs": [],
      "stateMutability": "nonpayable",
      "type": "function"
    }
  ],
  "bytecode": "0x60806040523480156200001157600080fd5b506200002930336200002f60201b620006fd1760201c565b620000fb565b600062000041620000ce60201b60201c565b9050828160000160006101000a81548173ffffffffffffffffffffffffffffffffffffffff021916908373ffffffffffffffffffffffffffffffffffffffff160217905550818160020160006101000a81548173ffffffffffffffffffffffffffffffffffffffff021916908373ffffffffffffffffffffffffffffffffffffffff160217905550505050565b6000807fc8fcad8db84d3cc18b4c41d551ea0ee66dd599cde068d998e57d5e09332c131c90508091505090565b6154cc806200010b6000396000f3fe6080604052600436106100e85760003560e01c806368111cce1161008a578063a83ba0ed11610059578063a83ba0ed146102e9578063b8aa4b7714610312578063c3db19401461032e578063dfc501fc14610357576100e8565b806368111cce1461021b578063700db75214610258578063712ca0f81461028357806372139d9a146102c0576100e8565b806318161570116100c657806318161570146101805780632e2dc43e146101a9578063364e022f146101d45780635d8d1585146101f0576100e8565b806301b3490d146100ed57806302ee3a52146101185780631009ab9d14610143575b600080fd5b3480156100f957600080fd5b50610102610380565b60405161010f9190613af6565b60405180910390f35b34801561012457600080fd5b5061012d61038f565b60405161013a9190613af6565b60405180910390f35b34801561014f57600080fd5b5061016a60048036038101906101659190613d47565b61039e565b6040516101779190613af6565b60405180910390f35b34801561018c57600080fd5b506101a760048036038101906101a29190613dbc565b6103b0565b005b3480156101b557600080fd5b506101be6103c4565b6040516101cb91906141b2565b60405180910390f35b6101ee60048036038101906101e991906141d4565b6103d3565b005b3480156101fc57600080fd5b50610205610481565b6040516102129190614359565b60405180910390f35b34801561022757600080fd5b50610242600480360381019061023d91906141d4565b610496565b60405161024f9190614433565b60405180910390f35b34801561026457600080fd5b5061026d6104ae565b60405161027a91906141b2565b60405180910390f35b34801561028f57600080fd5b506102aa60048036038101906102a591906141d4565b6104bd565b6040516102b7919061450d565b60405180910390f35b3480156102cc57600080fd5b506102e760048036038101906102e291906141d4565b6104d5565b005b3480156102f557600080fd5b50610310600480360381019061030b9190614947565b6104e1565b005b61032c60048036038101906103279190614a44565b61052d565b005b34801561033a57600080fd5b5061035560048036038101906103509190614c1f565b610688565b005b34801561036357600080fd5b5061037e60048036038101906103799190614de5565b6106a4565b005b606061038a610794565b905090565b6060610399610893565b905090565b60606103a982610c7c565b9050919050565b6103bd8585858585611103565b5050505050565b60606103ce6111f0565b905090565b60006103de82611d7a565b90506103e8610893565b81815181106103fa576103f9614efe565b5b602002602001015160a00151341461041157600080fd5b610419610893565b818151811061042b5761042a614efe565b5b602002602001015160c0015173ffffffffffffffffffffffffffffffffffffffff166108fc349081150290604051600060405180830381858888f1935050505015801561047c573d6000803e3d6000fd5b505050565b6104896135be565b610491611e67565b905090565b61049e613639565b6104a782612476565b9050919050565b60606104b86124af565b905090565b6104c561368c565b6104ce826125ae565b9050919050565b6104de816125e7565b50565b6105258686868686866040518060400160405280600781526020017f70656e64696e6700000000000000000000000000000000000000000000000000815250612722565b505050505050565b891561061c5761053b611e67565b610140015115610580576040517f08c379a000000000000000000000000000000000000000000000000000000000815260040161057790614f8a565b60405180910390fd5b6620a8fc1b6b900034146105c9576040517f08c379a00000000000000000000000000000000000000000000000000000000081526004016105c090614ff6565b60405180910390fd5b6105d1612a95565b73ffffffffffffffffffffffffffffffffffffffff166108fc349081150290604051600060405180830381858888f19350505050158015610616573d6000803e3d6000fd5b5061066a565b610624611e67565b610160015115610669576040517f08c379a000000000000000000000000000000000000000000000000000000000815260040161066090615062565b60405180910390fd5b5b61067c8a8a8a8a8a8a8a8a8a8a612ac8565b50505050505050505050565b610699898989898989898989612d05565b505050505050505050565b6106f56040518060e001604052808881526020018781526020018681526020018581526020018481526020018381526020013373ffffffffffffffffffffffffffffffffffffffff16815250612fff565b505050505050565b600061070761317d565b9050828160000160006101000a81548173ffffffffffffffffffffffffffffffffffffffff021916908373ffffffffffffffffffffffffffffffffffffffff160217905550818160020160006101000a81548173ffffffffffffffffffffffffffffffffffffffff021916908373ffffffffffffffffffffffffffffffffffffffff160217905550505050565b606060006107a06131aa565b5167ffffffffffffffff8111156107ba576107b9613b31565b5b6040519080825280602002602001820160405280156107f357816020015b6107e0613639565b8152602001906001900390816107d85790505b50905060005b6108016131aa565b5181101561088b5760006108356108166131aa565b838151811061082857610827614efe565b5b6020026020010151611d7a565b905061083f610893565b818151811061085157610850614efe565b5b602002602001015183838151811061086c5761086b614efe565b5b6020026020010181905250508080610883906150b1565b9150506107f9565b508091505090565b606061089d61317d565b600301805480602002602001604051908101604052809291908181526020016000905b82821015610c7357838290600052602060002090600702016040518060e00160405290816000820180546108f390615128565b80601f016020809104026020016040519081016040528092919081815260200182805461091f90615128565b801561096c5780601f106109415761010080835404028352916020019161096c565b820191906000526020600020905b81548152906001019060200180831161094f57829003601f168201915b5050505050815260200160018201805461098590615128565b80601f01602080910402602001604051908101604052809291908181526020018280546109b190615128565b80156109fe5780601f106109d3576101008083540402835291602001916109fe565b820191906000526020600020905b8154815290600101906020018083116109e157829003601f168201915b50505050508152602001600282018054610a1790615128565b80601f0160208091040260200160405190810160405280929190818152602001828054610a4390615128565b8015610a905780601f10610a6557610100808354040283529160200191610a90565b820191906000526020600020905b815481529060010190602001808311610a7357829003601f168201915b5050505050815260200160038201805480602002602001604051908101604052809291908181526020016000905b82821015610b6a578382906000526020600020018054610add90615128565b80601f0160208091040260200160405190810160405280929190818152602001828054610b0990615128565b8015610b565780601f10610b2b57610100808354040283529160200191610b56565b820191906000526020600020905b815481529060010190602001808311610b3957829003601f168201915b505050505081526020019060010190610abe565b505050508152602001600482018054610b8290615128565b80601f0160208091040260200160405190810160405280929190818152602001828054610bae90615128565b8015610bfb5780601f10610bd057610100808354040283529160200191610bfb565b820191906000526020600020905b815481529060010190602001808311610bde57829003601f168201915b50505050508152602001600582015481526020016006820160009054906101000a900473ffffffffffffffffffffffffffffffffffffffff1673ffffffffffffffffffffffffffffffffffffffff1673ffffffffffffffffffffffffffffffffffffffff1681525050815260200190600101906108c0565b50505050905090565b60606000610c8861317d565b90506000835167ffffffffffffffff811115610ca757610ca6613b31565b5b604051908082528060200260200182016040528015610ce057816020015b610ccd613639565b815260200190600190039081610cc55790505b50905060005b84518110156110f8576000610d14868381518110610d0757610d06614efe565b5b6020026020010151611d7a565b9050836003018181548110610d2c57610d2b614efe565b5b90600052602060002090600702016040518060e0016040529081600082018054610d5590615128565b80601f0160208091040260200160405190810160405280929190818152602001828054610d8190615128565b8015610dce5780601f10610da357610100808354040283529160200191610dce565b820191906000526020600020905b815481529060010190602001808311610db157829003601f168201915b50505050508152602001600182018054610de790615128565b80601f0160208091040260200160405190810160405280929190818152602001828054610e1390615128565b8015610e605780601f10610e3557610100808354040283529160200191610e60565b820191906000526020600020905b815481529060010190602001808311610e4357829003601f168201915b50505050508152602001600282018054610e7990615128565b80601f0160208091040260200160405190810160405280929190818152602001828054610ea590615128565b8015610ef25780601f10610ec757610100808354040283529160200191610ef2565b820191906000526020600020905b815481529060010190602001808311610ed557829003601f168201915b5050505050815260200160038201805480602002602001604051908101604052809291908181526020016000905b82821015610fcc578382906000526020600020018054610f3f90615128565b80601f0160208091040260200160405190810160405280929190818152602001828054610f6b90615128565b8015610fb85780601f10610f8d57610100808354040283529160200191610fb8565b820191906000526020600020905b815481529060010190602001808311610f9b57829003601f168201915b505050505081526020019060010190610f20565b505050508152602001600482018054610fe490615128565b80601f016020809104026020016040519081016040528092919081815260200182805461101090615128565b801561105d5780601f106110325761010080835404028352916020019161105d565b820191906000526020600020905b81548152906001019060200180831161104057829003601f168201915b50505050508152602001600582015481526020016006820160009054906101000a900473ffffffffffffffffffffffffffffffffffffffff1673ffffffffffffffffffffffffffffffffffffffff1673ffffffffffffffffffffffffffffffffffffffff16815250508383815181106110d9576110d8614efe565b5b60200260200101819052505080806110f0906150b1565b915050610ce6565b508092505050919050565b600061110d61317d565b9050600061111a87611d7a565b90508582600301828154811061113357611132614efe565b5b906000526020600020906007020160010190816111509190615305565b508482600301828154811061116857611167614efe565b5b906000526020600020906007020160020190816111859190615305565b508382600301828154811061119d5761119c614efe565b5b906000526020600020906007020160040190816111ba9190615305565b50828260030182815481106111d2576111d1614efe565b5b90600052602060002090600702016005018190555050505050505050565b60606111fa61317d565b600501805480602002602001604051908101604052809291908181526020016000905b82821015611d7157838290600052602060002090601702016040518060e001604052908160008201805461125090615128565b80601f016020809104026020016040519081016040528092919081815260200182805461127c90615128565b80156112c95780601f1061129e576101008083540402835291602001916112c9565b820191906000526020600020905b8154815290600101906020018083116112ac57829003601f168201915b505050505081526020016001820180546112e290615128565b80601f016020809104026020016040519081016040528092919081815260200182805461130e90615128565b801561135b5780601f106113305761010080835404028352916020019161135b565b820191906000526020600020905b81548152906001019060200180831161133e57829003601f168201915b5050505050815260200160028201604051806101800160405290816000820160009054906101000a900473ffffffffffffffffffffffffffffffffffffffff1673ffffffffffffffffffffffffffffffffffffffff1673ffffffffffffffffffffffffffffffffffffffff1681526020016001820180546113db90615128565b80601f016020809104026020016040519081016040528092919081815260200182805461140790615128565b80156114545780601f1061142957610100808354040283529160200191611454565b820191906000526020600020905b81548152906001019060200180831161143757829003601f168201915b5050505050815260200160028201805461146d90615128565b80601f016020809104026020016040519081016040528092919081815260200182805461149990615128565b80156114e65780601f106114bb576101008083540402835291602001916114e6565b820191906000526020600020905b8154815290600101906020018083116114c957829003601f168201915b505050505081526020016003820180546114ff90615128565b80601f016020809104026020016040519081016040528092919081815260200182805461152b90615128565b80156115785780601f1061154d57610100808354040283529160200191611578565b820191906000526020600020905b81548152906001019060200180831161155b57829003601f168201915b5050505050815260200160048201805461159190615128565b80601f01602080910402602001604051908101604052809291908181526020018280546115bd90615128565b801561160a5780601f106115df5761010080835404028352916020019161160a565b820191906000526020600020905b8154815290600101906020018083116115ed57829003601f168201915b5050505050815260200160058201805461162390615128565b80601f016020809104026020016040519081016040528092919081815260200182805461164f90615128565b801561169c5780601f106116715761010080835404028352916020019161169c565b820191906000526020600020905b81548152906001019060200180831161167f57829003601f168201915b505050505081526020016006820180546116b590615128565b80601f01602080910402602001604051908101604052809291908181526020018280546116e190615128565b801561172e5780601f106117035761010080835404028352916020019161172e565b820191906000526020600020905b81548152906001019060200180831161171157829003601f168201915b5050505050815260200160078201805461174790615128565b80601f016020809104026020016040519081016040528092919081815260200182805461177390615128565b80156117c05780601f10611795576101008083540402835291602001916117c0565b820191906000526020600020905b8154815290600101906020018083116117a357829003601f168201915b505050505081526020016008820180546117d990615128565b80601f016020809104026020016040519081016040528092919081815260200182805461180590615128565b80156118525780601f1061182757610100808354040283529160200191611852565b820191906000526020600020905b81548152906001019060200180831161183557829003601f168201915b5050505050815260200160098201805461186b90615128565b80601f016020809104026020016040519081016040528092919081815260200182805461189790615128565b80156118e45780601f106118b9576101008083540402835291602001916118e4565b820191906000526020600020905b8154815290600101906020018083116118c757829003601f168201915b50505050508152602001600a820160009054906101000a900460ff16151515158152602001600a820160019054906101000a900460ff1615151515815250508152602001600d82016040518060e001604052908160008201805461194790615128565b80601f016020809104026020016040519081016040528092919081815260200182805461197390615128565b80156119c05780601f10611995576101008083540402835291602001916119c0565b820191906000526020600020905b8154815290600101906020018083116119a357829003601f168201915b505050505081526020016001820180546119d990615128565b80601f0160208091040260200160405190810160405280929190818152602001828054611a0590615128565b8015611a525780601f10611a2757610100808354040283529160200191611a52565b820191906000526020600020905b815481529060010190602001808311611a3557829003601f168201915b50505050508152602001600282018054611a6b90615128565b80601f0160208091040260200160405190810160405280929190818152602001828054611a9790615128565b8015611ae45780601f10611ab957610100808354040283529160200191611ae4565b820191906000526020600020905b815481529060010190602001808311611ac757829003601f168201915b5050505050815260200160038201805480602002602001604051908101604052809291908181526020016000905b82821015611bbe578382906000526020600020018054611b3190615128565b80601f0160208091040260200160405190810160405280929190818152602001828054611b5d90615128565b8015611baa5780601f10611b7f57610100808354040283529160200191611baa565b820191906000526020600020905b815481529060010190602001808311611b8d57829003601f168201915b505050505081526020019060010190611b12565b505050508152602001600482018054611bd690615128565b80601f0160208091040260200160405190810160405280929190818152602001828054611c0290615128565b8015611c4f5780601f10611c2457610100808354040283529160200191611c4f565b820191906000526020600020905b815481529060010190602001808311611c3257829003601f168201915b50505050508152602001600582015481526020016006820160009054906101000a900473ffffffffffffffffffffffffffffffffffffffff1673ffffffffffffffffffffffffffffffffffffffff1673ffffffffffffffffffffffffffffffffffffffff168152505081526020016014820154815260200160158201548152602001601682018054611ce090615128565b80601f0160208091040260200160405190810160405280929190818152602001828054611d0c90615128565b8015611d595780601f10611d2e57610100808354040283529160200191611d59565b820191906000526020600020905b815481529060010190602001808311611d3c57829003601f168201915b5050505050815250508152602001906001019061121d565b50505050905090565b600080600090505b611d8a610893565b51811015611e265782604051602001611da39190615413565b60405160208183030381529060405280519060200120611dc1610893565b8281518110611dd357611dd2614efe565b5b602002602001015160000151604051602001611def9190615413565b6040516020818303038152906040528051906020012003611e135780915050611e62565b8080611e1e906150b1565b915050611d82565b506040517f08c379a0000000000000000000000000000000000000000000000000000000008152600401611e5990615476565b60405180910390fd5b919050565b611e6f6135be565b611e7761317d565b60010160003373ffffffffffffffffffffffffffffffffffffffff1673ffffffffffffffffffffffffffffffffffffffff168152602001908152602001600020604051806101800160405290816000820160009054906101000a900473ffffffffffffffffffffffffffffffffffffffff1673ffffffffffffffffffffffffffffffffffffffff1673ffffffffffffffffffffffffffffffffffffffff168152602001600182018054611f2990615128565b80601f0160208091040260200160405190810160405280929190818152602001828054611f5590615128565b8015611fa25780601f10611f7757610100808354040283529160200191611fa2565b820191906000526020600020905b815481529060010190602001808311611f8557829003601f168201915b50505050508152602001600282018054611fbb90615128565b80601f0160208091040260200160405190810160405280929190818152602001828054611fe790615128565b80156120345780601f1061200957610100808354040283529160200191612034565b820191906000526020600020905b81548152906001019060200180831161201757829003601f168201915b5050505050815260200160038201805461204d90615128565b80601f016020809104026020016040519081016040528092919081815260200182805461207990615128565b80156120c65780601f1061209b576101008083540402835291602001916120c6565b820191906000526020600020905b8154815290600101906020018083116120a957829003601f168201915b505050505081526020016004820180546120df90615128565b80601f016020809104026020016040519081016040528092919081815260200182805461210b90615128565b80156121585780601f1061212d57610100808354040283529160200191612158565b820191906000526020600020905b81548152906001019060200180831161213b57829003601f168201915b5050505050815260200160058201805461217190615128565b80601f016020809104026020016040519081016040528092919081815260200182805461219d90615128565b80156121ea5780601f106121bf576101008083540402835291602001916121ea565b820191906000526020600020905b8154815290600101906020018083116121cd57829003601f168201915b5050505050815260200160068201805461220390615128565b80601f016020809104026020016040519081016040528092919081815260200182805461222f90615128565b801561227c5780601f106122515761010080835404028352916020019161227c565b820191906000526020600020905b81548152906001019060200180831161225f57829003601f168201915b5050505050815260200160078201805461229590615128565b80601f01602080910402602001604051908101604052809291908181526020018280546122c190615128565b801561230e5780601f106122e35761010080835404028352916020019161230e565b820191906000526020600020905b8154815290600101906020018083116122f157829003601f168201915b5050505050815260200160088201805461232790615128565b80601f016020809104026020016040519081016040528092919081815260200182805461235390615128565b80156123a05780601f10612375576101008083540402835291602001916123a0565b820191906000526020600020905b81548152906001019060200180831161238357829003601f168201915b505050505081526020016009820180546123b990615128565b80601f01602080910402602001604051908101604052809291908181526020018280546123e590615128565b80156124325780601f1061240757610100808354040283529160200191612432565b820191906000526020600020905b81548152906001019060200180831161241557829003601f168201915b50505050508152602001600a820160009054906101000a900460ff16151515158152602001600a820160019054906101000a900460ff161515151581525050905090565b61247e613639565b612486610893565b61248f83611d7a565b815181106124a05761249f614efe565b5b60200260200101519050919050565b606060006124bb6132c9565b5167ffffffffffffffff8111156124d5576124d4613b31565b5b60405190808252806020026020018201604052801561250e57816020015b6124fb61368c565b8152602001906001900390816124f35790505b50905060005b61251c6132c9565b518110156125a65760006125506125316132c9565b838151811061254357612542614efe565b5b60200260200101516133e8565b905061255a6111f0565b818151811061256c5761256b614efe565b5b602002602001015183838151811061258757612586614efe565b5b602002602001018190525050808061259e906150b1565b915050612514565b508091505090565b6125b661368c565b6125be6111f0565b6125c7836133e8565b815181106125d8576125d7614efe565b5b60200260200101519050919050565b60006125f161317d565b905060006125fe83611d7a565b9050600061260b846134d5565b905082600301828154811061262357612622614efe565b5b90600052602060002090600702016000808201600061264291906136d5565b60018201600061265291906136d5565b60028201600061266291906136d5565b6003820160006126729190613715565b60048201600061268291906136d5565b60058201600090556006820160006101000a81549073ffffffffffffffffffffffffffffffffffffffff021916905550508260040160003373ffffffffffffffffffffffffffffffffffffffff1673ffffffffffffffffffffffffffffffffffffffff168152602001908152602001600020818154811061270657612705614efe565b5b90600052602060002001600061271c91906136d5565b50505050565b600061272c61317d565b9050806005016040518060e001604052808a815260200189815260200188815260200187815260200186815260200185815260200184815250908060018154018082558091505060019003906000526020600020906017020160009091909190915060008201518160000190816127a39190615305565b5060208201518160010190816127b99190615305565b5060408201518160020160008201518160000160006101000a81548173ffffffffffffffffffffffffffffffffffffffff021916908373ffffffffffffffffffffffffffffffffffffffff160217905550602082015181600101908161281f9190615305565b5060408201518160020190816128359190615305565b50606082015181600301908161284b9190615305565b5060808201518160040190816128619190615305565b5060a08201518160050190816128779190615305565b5060c082015181600601908161288d9190615305565b5060e08201518160070190816128a39190615305565b506101008201518160080190816128ba9190615305565b506101208201518160090190816128d19190615305565b5061014082015181600a0160006101000a81548160ff02191690831515021790555061016082015181600a0160016101000a81548160ff0219169083151502179055505050606082015181600d0160008201518160000190816129349190615305565b50602082015181600101908161294a9190615305565b5060408201518160020190816129609190615305565b50606082015181600301908051906020019061297d929190613736565b5060808201518160040190816129939190615305565b5060a0820151816005015560c08201518160060160006101000a81548173ffffffffffffffffffffffffffffffffffffffff021916908373ffffffffffffffffffffffffffffffffffffffff16021790555050506080820151816014015560a0820151816015015560c0820151816016019081612a109190615305565b5050508060060160008660c0015173ffffffffffffffffffffffffffffffffffffffff1673ffffffffffffffffffffffffffffffffffffffff16815260200190815260200160002088908060018154018082558091505060019003906000526020600020016000909190919091509081612a8a9190615305565b505050505050505050565b6000612a9f61317d565b60020160009054906101000a900473ffffffffffffffffffffffffffffffffffffffff16905090565b6040518061018001604052803373ffffffffffffffffffffffffffffffffffffffff1681526020018a81526020018981526020018881526020018781526020018681526020018581526020018481526020018381526020018281526020018b80612b3b5750612b35611e67565b61014001515b151581526020018b1580612b585750612b52611e67565b61016001515b1515815250612b6561317d565b60010160003373ffffffffffffffffffffffffffffffffffffffff1673ffffffffffffffffffffffffffffffffffffffff16815260200190815260200160002060008201518160000160006101000a81548173ffffffffffffffffffffffffffffffffffffffff021916908373ffffffffffffffffffffffffffffffffffffffff1602179055506020820151816001019081612c019190615305565b506040820151816002019081612c179190615305565b506060820151816003019081612c2d9190615305565b506080820151816004019081612c439190615305565b5060a0820151816005019081612c599190615305565b5060c0820151816006019081612c6f9190615305565b5060e0820151816007019081612c859190615305565b50610100820151816008019081612c9c9190615305565b50610120820151816009019081612cb39190615305565b5061014082015181600a0160006101000a81548160ff02191690831515021790555061016082015181600a0160016101000a81548160ff02191690831515021790555090505050505050505050505050565b6000612d0f61317d565b9050898160010160003373ffffffffffffffffffffffffffffffffffffffff1673ffffffffffffffffffffffffffffffffffffffff1681526020019081526020016000206001019081612d629190615305565b50888160010160003373ffffffffffffffffffffffffffffffffffffffff1673ffffffffffffffffffffffffffffffffffffffff1681526020019081526020016000206002019081612db49190615305565b50878160010160003373ffffffffffffffffffffffffffffffffffffffff1673ffffffffffffffffffffffffffffffffffffffff1681526020019081526020016000206003019081612e069190615305565b50868160010160003373ffffffffffffffffffffffffffffffffffffffff1673ffffffffffffffffffffffffffffffffffffffff1681526020019081526020016000206004019081612e589190615305565b50858160010160003373ffffffffffffffffffffffffffffffffffffffff1673ffffffffffffffffffffffffffffffffffffffff1681526020019081526020016000206005019081612eaa9190615305565b50848160010160003373ffffffffffffffffffffffffffffffffffffffff1673ffffffffffffffffffffffffffffffffffffffff1681526020019081526020016000206006019081612efc9190615305565b50838160010160003373ffffffffffffffffffffffffffffffffffffffff1673ffffffffffffffffffffffffffffffffffffffff1681526020019081526020016000206007019081612f4e9190615305565b50828160010160003373ffffffffffffffffffffffffffffffffffffffff1673ffffffffffffffffffffffffffffffffffffffff1681526020019081526020016000206008019081612fa09190615305565b50818160010160003373ffffffffffffffffffffffffffffffffffffffff1673ffffffffffffffffffffffffffffffffffffffff1681526020019081526020016000206009019081612ff29190615305565b5050505050505050505050565b600061300961317d565b905080600301829080600181540180825580915050600190039060005260206000209060070201600090919091909150600082015181600001908161304e9190615305565b5060208201518160010190816130649190615305565b50604082015181600201908161307a9190615305565b506060820151816003019080519060200190613097929190613736565b5060808201518160040190816130ad9190615305565b5060a0820151816005015560c08201518160060160006101000a81548173ffffffffffffffffffffffffffffffffffffffff021916908373ffffffffffffffffffffffffffffffffffffffff16021790555050508060040160003373ffffffffffffffffffffffffffffffffffffffff1673ffffffffffffffffffffffffffffffffffffffff16815260200190815260200160002082600001519080600181540180825580915050600190039060005260206000200160009091909190915090816131789190615305565b505050565b6000807fc8fcad8db84d3cc18b4c41d551ea0ee66dd599cde068d998e57d5e09332c131c90508091505090565b60606131b461317d565b60040160003373ffffffffffffffffffffffffffffffffffffffff1673ffffffffffffffffffffffffffffffffffffffff168152602001908152602001600020805480602002602001604051908101604052809291908181526020016000905b828210156132c057838290600052602060002001805461323390615128565b80601f016020809104026020016040519081016040528092919081815260200182805461325f90615128565b80156132ac5780601f10613281576101008083540402835291602001916132ac565b820191906000526020600020905b81548152906001019060200180831161328f57829003601f168201915b505050505081526020019060010190613214565b50505050905090565b60606132d361317d565b60060160003373ffffffffffffffffffffffffffffffffffffffff1673ffffffffffffffffffffffffffffffffffffffff168152602001908152602001600020805480602002602001604051908101604052809291908181526020016000905b828210156133df57838290600052602060002001805461335290615128565b80601f016020809104026020016040519081016040528092919081815260200182805461337e90615128565b80156133cb5780601f106133a0576101008083540402835291602001916133cb565b820191906000526020600020905b8154815290600101906020018083116133ae57829003601f168201915b505050505081526020019060010190613333565b50505050905090565b600080600090505b6133f86111f0565b5181101561349457826040516020016134119190615413565b6040516020818303038152906040528051906020012061342f6111f0565b828151811061344157613440614efe565b5b60200260200101516000015160405160200161345d9190615413565b604051602081830303815290604052805190602001200361348157809150506134d0565b808061348c906150b1565b9150506133f0565b506040517f08c379a00000000000000000000000000000000000000000000000000000000081526004016134c790615476565b60405180910390fd5b919050565b600080600090505b6134e56131aa565b5181101561357d57826040516020016134fe9190615413565b6040516020818303038152906040528051906020012061351c6131aa565b828151811061352e5761352d614efe565b5b60200260200101516040516020016135469190615413565b604051602081830303815290604052805190602001200361356a57809150506135b9565b8080613575906150b1565b9150506134dd565b506040517f08c379a00000000000000000000000000000000000000000000000000000000081526004016135b090615476565b60405180910390fd5b919050565b604051806101800160405280600073ffffffffffffffffffffffffffffffffffffffff1681526020016060815260200160608152602001606081526020016060815260200160608152602001606081526020016060815260200160608152602001606081526020016000151581526020016000151581525090565b6040518060e00160405280606081526020016060815260200160608152602001606081526020016060815260200160008152602001600073ffffffffffffffffffffffffffffffffffffffff1681525090565b6040518060e0016040528060608152602001606081526020016136ad6135be565b81526020016136ba613639565b81526020016000815260200160008152602001606081525090565b5080546136e190615128565b6000825580601f106136f35750613712565b601f016020900490600052602060002090810190613711919061378f565b5b50565b508054600082559060005260206000209081019061373391906137ac565b50565b82805482825590600052602060002090810192821561377e579160200282015b8281111561377d57825182908161376d9190615305565b5091602001919060010190613756565b5b50905061378b91906137ac565b5090565b5b808211156137a8576000816000905550600101613790565b5090565b5b808211156137cc57600081816137c391906136d5565b506001016137ad565b5090565b600081519050919050565b600082825260208201905092915050565b6000819050602082019050919050565b600081519050919050565b600082825260208201905092915050565b60005b8381101561383657808201518184015260208101905061381b565b60008484015250505050565b6000601f19601f8301169050919050565b600061385e826137fc565b6138688185613807565b9350613878818560208601613818565b61388181613842565b840191505092915050565b600081519050919050565b600082825260208201905092915050565b6000819050602082019050919050565b60006138c48383613853565b905092915050565b6000602082019050919050565b60006138e48261388c565b6138ee8185613897565b935083602082028501613900856138a8565b8060005b8581101561393c578484038952815161391d85826138b8565b9450613928836138cc565b925060208a01995050600181019050613904565b50829750879550505050505092915050565b6000819050919050565b6139618161394e565b82525050565b600073ffffffffffffffffffffffffffffffffffffffff82169050919050565b600061399282613967565b9050919050565b6139a281613987565b82525050565b600060e08301600083015184820360008601526139c58282613853565b915050602083015184820360208601526139df8282613853565b915050604083015184820360408601526139f98282613853565b91505060608301518482036060860152613a1382826138d9565b91505060808301518482036080860152613a2d8282613853565b91505060a0830151613a4260a0860182613958565b5060c0830151613a5560c0860182613999565b508091505092915050565b6000613a6c83836139a8565b905092915050565b6000602082019050919050565b6000613a8c826137d0565b613a9681856137db565b935083602082028501613aa8856137ec565b8060005b85811015613ae45784840389528151613ac58582613a60565b9450613ad083613a74565b925060208a01995050600181019050613aac565b50829750879550505050505092915050565b60006020820190508181036000830152613b108184613a81565b905092915050565b6000604051905090565b600080fd5b600080fd5b600080fd5b7f4e487b7100000000000000000000000000000000000000000000000000000000600052604160045260246000fd5b613b6982613842565b810181811067ffffffffffffffff82111715613b8857613b87613b31565b5b80604052505050565b6000613b9b613b18565b9050613ba78282613b60565b919050565b600067ffffffffffffffff821115613bc757613bc6613b31565b5b602082029050602081019050919050565b600080fd5b600080fd5b600067ffffffffffffffff821115613bfd57613bfc613b31565b5b613c0682613842565b9050602081019050919050565b82818337600083830152505050565b6000613c35613c3084613be2565b613b91565b905082815260208101848484011115613c5157613c50613bdd565b5b613c5c848285613c13565b509392505050565b600082601f830112613c7957613c78613b2c565b5b8135613c89848260208601613c22565b91505092915050565b6000613ca5613ca084613bac565b613b91565b90508083825260208201905060208402830185811115613cc857613cc7613bd8565b5b835b81811015613d0f57803567ffffffffffffffff811115613ced57613cec613b2c565b5b808601613cfa8982613c64565b85526020850194505050602081019050613cca565b5050509392505050565b600082601f830112613d2e57613d2d613b2c565b5b8135613d3e848260208601613c92565b91505092915050565b600060208284031215613d5d57613d5c613b22565b5b600082013567ffffffffffffffff811115613d7b57613d7a613b27565b5b613d8784828501613d19565b91505092915050565b613d998161394e565b8114613da457600080fd5b50565b600081359050613db681613d90565b92915050565b600080600080600060a08688031215613dd857613dd7613b22565b5b600086013567ffffffffffffffff811115613df657613df5613b27565b5b613e0288828901613c64565b955050602086013567ffffffffffffffff811115613e2357613e22613b27565b5b613e2f88828901613c64565b945050604086013567ffffffffffffffff811115613e5057613e4f613b27565b5b613e5c88828901613c64565b935050606086013567ffffffffffffffff811115613e7d57613e7c613b27565b5b613e8988828901613c64565b9250506080613e9a88828901613da7565b9150509295509295909350565b600081519050919050565b600082825260208201905092915050565b6000819050602082019050919050565b6000613ede82613967565b9050919050565b613eee81613ed3565b82525050565b60008115159050919050565b613f0981613ef4565b82525050565b600061018083016000830151613f286000860182613ee5565b5060208301518482036020860152613f408282613853565b91505060408301518482036040860152613f5a8282613853565b91505060608301518482036060860152613f748282613853565b91505060808301518482036080860152613f8e8282613853565b91505060a083015184820360a0860152613fa88282613853565b91505060c083015184820360c0860152613fc28282613853565b91505060e083015184820360e0860152613fdc8282613853565b915050610100830151848203610100860152613ff88282613853565b9150506101208301518482036101208601526140148282613853565b91505061014083015161402b610140860182613f00565b50610160830151614040610160860182613f00565b508091505092915050565b6000819050919050565b61405e8161404b565b82525050565b600060e08301600083015184820360008601526140818282613853565b9150506020830151848203602086015261409b8282613853565b915050604083015184820360408601526140b58282613f0f565b915050606083015184820360608601526140cf82826139a8565b91505060808301516140e46080860182614055565b5060a08301516140f760a0860182613958565b5060c083015184820360c086015261410f8282613853565b9150508091505092915050565b60006141288383614064565b905092915050565b6000602082019050919050565b600061414882613ea7565b6141528185613eb2565b93508360208202850161416485613ec3565b8060005b858110156141a05784840389528151614181858261411c565b945061418c83614130565b925060208a01995050600181019050614168565b50829750879550505050505092915050565b600060208201905081810360008301526141cc818461413d565b905092915050565b6000602082840312156141ea576141e9613b22565b5b600082013567ffffffffffffffff81111561420857614207613b27565b5b61421484828501613c64565b91505092915050565b6000610180830160008301516142366000860182613ee5565b506020830151848203602086015261424e8282613853565b915050604083015184820360408601526142688282613853565b915050606083015184820360608601526142828282613853565b9150506080830151848203608086015261429c8282613853565b91505060a083015184820360a08601526142b68282613853565b91505060c083015184820360c08601526142d08282613853565b91505060e083015184820360e08601526142ea8282613853565b9150506101008301518482036101008601526143068282613853565b9150506101208301518482036101208601526143228282613853565b915050610140830151614339610140860182613f00565b5061016083015161434e610160860182613f00565b508091505092915050565b60006020820190508181036000830152614373818461421d565b905092915050565b600060e08301600083015184820360008601526143988282613853565b915050602083015184820360208601526143b28282613853565b915050604083015184820360408601526143cc8282613853565b915050606083015184820360608601526143e682826138d9565b915050608083015184820360808601526144008282613853565b91505060a083015161441560a0860182613958565b5060c083015161442860c0860182613999565b508091505092915050565b6000602082019050818103600083015261444d818461437b565b905092915050565b600060e08301600083015184820360008601526144728282613853565b9150506020830151848203602086015261448c8282613853565b915050604083015184820360408601526144a68282613f0f565b915050606083015184820360608601526144c082826139a8565b91505060808301516144d56080860182614055565b5060a08301516144e860a0860182613958565b5060c083015184820360c08601526145008282613853565b9150508091505092915050565b600060208201905081810360008301526145278184614455565b905092915050565b600080fd5b600080fd5b61454281613ed3565b811461454d57600080fd5b50565b60008135905061455f81614539565b92915050565b61456e81613ef4565b811461457957600080fd5b50565b60008135905061458b81614565565b92915050565b600061018082840312156145a8576145a761452f565b5b6145b3610180613b91565b905060006145c384828501614550565b600083015250602082013567ffffffffffffffff8111156145e7576145e6614534565b5b6145f384828501613c64565b602083015250604082013567ffffffffffffffff81111561461757614616614534565b5b61462384828501613c64565b604083015250606082013567ffffffffffffffff81111561464757614646614534565b5b61465384828501613c64565b606083015250608082013567ffffffffffffffff81111561467757614676614534565b5b61468384828501613c64565b60808301525060a082013567ffffffffffffffff8111156146a7576146a6614534565b5b6146b384828501613c64565b60a08301525060c082013567ffffffffffffffff8111156146d7576146d6614534565b5b6146e384828501613c64565b60c08301525060e082013567ffffffffffffffff81111561470757614706614534565b5b61471384828501613c64565b60e08301525061010082013567ffffffffffffffff81111561473857614737614534565b5b61474484828501613c64565b6101008301525061012082013567ffffffffffffffff81111561476a57614769614534565b5b61477684828501613c64565b6101208301525061014061478c8482850161457c565b610140830152506101606147a28482850161457c565b6101608301525092915050565b6147b881613987565b81146147c357600080fd5b50565b6000813590506147d5816147af565b92915050565b600060e082840312156147f1576147f061452f565b5b6147fb60e0613b91565b9050600082013567ffffffffffffffff81111561481b5761481a614534565b5b61482784828501613c64565b600083015250602082013567ffffffffffffffff81111561484b5761484a614534565b5b61485784828501613c64565b602083015250604082013567ffffffffffffffff81111561487b5761487a614534565b5b61488784828501613c64565b604083015250606082013567ffffffffffffffff8111156148ab576148aa614534565b5b6148b784828501613d19565b606083015250608082013567ffffffffffffffff8111156148db576148da614534565b5b6148e784828501613c64565b60808301525060a06148fb84828501613da7565b60a08301525060c061490f848285016147c6565b60c08301525092915050565b6149248161404b565b811461492f57600080fd5b50565b6000813590506149418161491b565b92915050565b60008060008060008060c0878903121561496457614963613b22565b5b600087013567ffffffffffffffff81111561498257614981613b27565b5b61498e89828a01613c64565b965050602087013567ffffffffffffffff8111156149af576149ae613b27565b5b6149bb89828a01613c64565b955050604087013567ffffffffffffffff8111156149dc576149db613b27565b5b6149e889828a01614591565b945050606087013567ffffffffffffffff811115614a0957614a08613b27565b5b614a1589828a016147db565b9350506080614a2689828a01614932565b92505060a0614a3789828a01613da7565b9150509295509295509295565b6000806000806000806000806000806101408b8d031215614a6857614a67613b22565b5b6000614a768d828e0161457c565b9a505060208b013567ffffffffffffffff811115614a9757614a96613b27565b5b614aa38d828e01613c64565b99505060408b013567ffffffffffffffff811115614ac457614ac3613b27565b5b614ad08d828e01613c64565b98505060608b013567ffffffffffffffff811115614af157614af0613b27565b5b614afd8d828e01613c64565b97505060808b013567ffffffffffffffff811115614b1e57614b1d613b27565b5b614b2a8d828e01613c64565b96505060a08b013567ffffffffffffffff811115614b4b57614b4a613b27565b5b614b578d828e01613c64565b95505060c08b013567ffffffffffffffff811115614b7857614b77613b27565b5b614b848d828e01613c64565b94505060e08b013567ffffffffffffffff811115614ba557614ba4613b27565b5b614bb18d828e01613c64565b9350506101008b013567ffffffffffffffff811115614bd357614bd2613b27565b5b614bdf8d828e01613c64565b9250506101208b013567ffffffffffffffff811115614c0157614c00613b27565b5b614c0d8d828e01613c64565b9150509295989b9194979a5092959850565b60008060008060008060008060006101208a8c031215614c4257614c41613b22565b5b60008a013567ffffffffffffffff811115614c6057614c5f613b27565b5b614c6c8c828d01613c64565b99505060208a013567ffffffffffffffff811115614c8d57614c8c613b27565b5b614c998c828d01613c64565b98505060408a013567ffffffffffffffff811115614cba57614cb9613b27565b5b614cc68c828d01613c64565b97505060608a013567ffffffffffffffff811115614ce757614ce6613b27565b5b614cf38c828d01613c64565b96505060808a013567ffffffffffffffff811115614d1457614d13613b27565b5b614d208c828d01613c64565b95505060a08a013567ffffffffffffffff811115614d4157614d40613b27565b5b614d4d8c828d01613c64565b94505060c08a013567ffffffffffffffff811115614d6e57614d6d613b27565b5b614d7a8c828d01613c64565b93505060e08a013567ffffffffffffffff811115614d9b57614d9a613b27565b5b614da78c828d01613c64565b9250506101008a013567ffffffffffffffff811115614dc957614dc8613b27565b5b614dd58c828d01613c64565b9150509295985092959850929598565b60008060008060008060c08789031215614e0257614e01613b22565b5b600087013567ffffffffffffffff811115614e2057614e1f613b27565b5b614e2c89828a01613c64565b965050602087013567ffffffffffffffff811115614e4d57614e4c613b27565b5b614e5989828a01613c64565b955050604087013567ffffffffffffffff811115614e7a57614e79613b27565b5b614e8689828a01613c64565b945050606087013567ffffffffffffffff811115614ea757614ea6613b27565b5b614eb389828a01613d19565b935050608087013567ffffffffffffffff811115614ed457614ed3613b27565b5b614ee089828a01613c64565b92505060a0614ef189828a01613da7565b9150509295509295509295565b7f4e487b7100000000000000000000000000000000000000000000000000000000600052603260045260246000fd5b600082825260208201905092915050565b7f4578697374696e672053656c6c65720000000000000000000000000000000000600082015250565b6000614f74600f83614f2d565b9150614f7f82614f3e565b602082019050919050565b60006020820190508181036000830152614fa381614f67565b9050919050565b7f496e73756666696369656e742077616c6c65742066756e647321000000000000600082015250565b6000614fe0601a83614f2d565b9150614feb82614faa565b602082019050919050565b6000602082019050818103600083015261500f81614fd3565b9050919050565b7f4578697374696e67204275796572000000000000000000000000000000000000600082015250565b600061504c600e83614f2d565b915061505782615016565b602082019050919050565b6000602082019050818103600083015261507b8161503f565b9050919050565b7f4e487b7100000000000000000000000000000000000000000000000000000000600052601160045260246000fd5b60006150bc8261394e565b91507fffffffffffffffffffffffffffffffffffffffffffffffffffffffffffffffff82036150ee576150ed615082565b5b600182019050919050565b7f4e487b7100000000000000000000000000000000000000000000000000000000600052602260045260246000fd5b6000600282049050600182168061514057607f821691505b602082108103615153576151526150f9565b5b50919050565b60008190508160005260206000209050919050565b60006020601f8301049050919050565b600082821b905092915050565b6000600883026151bb7fffffffffffffffffffffffffffffffffffffffffffffffffffffffffffffffff8261517e565b6151c5868361517e565b95508019841693508086168417925050509392505050565b6000819050919050565b60006152026151fd6151f88461394e565b6151dd565b61394e565b9050919050565b6000819050919050565b61521c836151e7565b61523061522882615209565b84845461518b565b825550505050565b600090565b615245615238565b615250818484615213565b505050565b5b818110156152745761526960008261523d565b600181019050615256565b5050565b601f8211156152b95761528a81615159565b6152938461516e565b810160208510156152a2578190505b6152b66152ae8561516e565b830182615255565b50505b505050565b600082821c905092915050565b60006152dc600019846008026152be565b1980831691505092915050565b60006152f583836152cb565b9150826002028217905092915050565b61530e826137fc565b67ffffffffffffffff81111561532757615326613b31565b5b6153318254615128565b61533c828285615278565b600060209050601f83116001811461536f576000841561535d578287015190505b61536785826152e9565b8655506153cf565b601f19841661537d86615159565b60005b828110156153a557848901518255600182019150602085019450602081019050615380565b868310156153c257848901516153be601f8916826152cb565b8355505b6001600288020188555050505b505050505050565b600081905092915050565b60006153ed826137fc565b6153f781856153d7565b9350615407818560208601613818565b80840191505092915050565b600061541f82846153e2565b915081905092915050565b7f50726f64756374206e6f7420666f756e64000000000000000000000000000000600082015250565b6000615460601183614f2d565b915061546b8261542a565b602082019050919050565b6000602082019050818103600083015261548f81615453565b905091905056fea26469706673582212202da03db4ef01b4b1e2469bc1aab4cb405428d121fbdc2eb710f26d690cfc491864736f6c63430008110033",
  "linkReferences": {},
  "deployedLinkReferences": {}
}